{"contracts/BoxV2.sol":{"BoxV2":{"abi":[{"anonymous":false,"inputs":[{"indexed":false,"internalType":"uint256","name":"newVale","type":"uint256"}],"name":"valueChanged","type":"event"},{"inputs":[],"name":"increment","outputs":[{"internalType":"uint256","name":"","type":"uint256"}],"stateMutability":"nonpayable","type":"function"},{"inputs":[],"name":"retrieve","outputs":[{"internalType":"uint256","name":"","type":"uint256"}],"stateMutability":"view","type":"function"},{"inputs":[{"internalType":"uint256","name":"newValue","type":"uint256"}],"name":"store","outputs":[],"stateMutability":"nonpayable","type":"function"},{"inputs":[],"name":"version","outputs":[{"internalType":"string","name":"","type":"string"}],"stateMutability":"pure","type":"function"}],"devdoc":{"kind":"dev","methods":{},"version":1},"evm":{"bytecode":{"linkReferences":{},"object":"608060405234801561001057600080fd5b506103ae806100206000396000f3fe608060405234801561001057600080fd5b506004361061004c5760003560e01c80632e64cec11461005157806354fd4d501461006f5780636057361d1461008d578063d09de08a146100a9575b600080fd5b6100596100c7565b6040516100669190610252565b60405180910390f35b6100776100d0565b6040516100849190610230565b60405180910390f35b6100a760048036038101906100a291906101bb565b61010d565b005b6100b161014e565b6040516100be9190610252565b60405180910390f35b60008054905090565b60606040518060400160405280600381526020017f322e300000000000000000000000000000000000000000000000000000000000815250905090565b806000819055507fc0dd44d3f117c96295a84b2eb7b3f6abe929928d111b030bfb3568f5efa0ff1f816040516101439190610252565b60405180910390a150565b6000600160005461015f9190610289565b6000819055507fc0dd44d3f117c96295a84b2eb7b3f6abe929928d111b030bfb3568f5efa0ff1f6000546040516101969190610252565b60405180910390a1600054905090565b6000813590506101b581610361565b92915050565b6000602082840312156101d1576101d061034b565b5b60006101df848285016101a6565b91505092915050565b60006101f38261026d565b6101fd8185610278565b935061020d8185602086016102e9565b61021681610350565b840191505092915050565b61022a816102df565b82525050565b6000602082019050818103600083015261024a81846101e8565b905092915050565b60006020820190506102676000830184610221565b92915050565b600081519050919050565b600082825260208201905092915050565b6000610294826102df565b915061029f836102df565b9250827fffffffffffffffffffffffffffffffffffffffffffffffffffffffffffffffff038211156102d4576102d361031c565b5b828201905092915050565b6000819050919050565b60005b838110156103075780820151818401526020810190506102ec565b83811115610316576000848401525b50505050565b7f4e487b7100000000000000000000000000000000000000000000000000000000600052601160045260246000fd5b600080fd5b6000601f19601f8301169050919050565b61036a816102df565b811461037557600080fd5b5056fea264697066735822122006cb63fb33267fcfbccd1c48afbaf5761e3b6398457fb496dd98c93912be022a64736f6c63430008070033","opcodes":"PUSH1 0x80 PUSH1 0x40 MSTORE CALLVALUE DUP1 ISZERO PUSH2 0x10 JUMPI PUSH1 0x0 DUP1 REVERT JUMPDEST POP PUSH2 0x3AE DUP1 PUSH2 0x20 PUSH1 0x0 CODECOPY PUSH1 0x0 RETURN INVALID PUSH1 0x80 PUSH1 0x40 MSTORE CALLVALUE DUP1 ISZERO PUSH2 0x10 JUMPI PUSH1 0x0 DUP1 REVERT JUMPDEST POP PUSH1 0x4 CALLDATASIZE LT PUSH2 0x4C JUMPI PUSH1 0x0 CALLDATALOAD PUSH1 0xE0 SHR DUP1 PUSH4 0x2E64CEC1 EQ PUSH2 0x51 JUMPI DUP1 PUSH4 0x54FD4D50 EQ PUSH2 0x6F JUMPI DUP1 PUSH4 0x6057361D EQ PUSH2 0x8D JUMPI DUP1 PUSH4 0xD09DE08A EQ PUSH2 0xA9 JUMPI JUMPDEST PUSH1 0x0 DUP1 REVERT JUMPDEST PUSH2 0x59 PUSH2 0xC7 JUMP JUMPDEST PUSH1 0x40 MLOAD PUSH2 0x66 SWAP2 SWAP1 PUSH2 0x252 JUMP JUMPDEST PUSH1 0x40 MLOAD DUP1 SWAP2 SUB SWAP1 RETURN JUMPDEST PUSH2 0x77 PUSH2 0xD0 JUMP JUMPDEST PUSH1 0x40 MLOAD PUSH2 0x84 SWAP2 SWAP1 PUSH2 0x230 JUMP JUMPDEST PUSH1 0x40 MLOAD DUP1 SWAP2 SUB SWAP1 RETURN JUMPDEST PUSH2 0xA7 PUSH1 0x4 DUP1 CALLDATASIZE SUB DUP2 ADD SWAP1 PUSH2 0xA2 SWAP2 SWAP1 PUSH2 0x1BB JUMP JUMPDEST PUSH2 0x10D JUMP JUMPDEST STOP JUMPDEST PUSH2 0xB1 PUSH2 0x14E JUMP JUMPDEST PUSH1 0x40 MLOAD PUSH2 0xBE SWAP2 SWAP1 PUSH2 0x252 JUMP JUMPDEST PUSH1 0x40 MLOAD DUP1 SWAP2 SUB SWAP1 RETURN JUMPDEST PUSH1 0x0 DUP1 SLOAD SWAP1 POP SWAP1 JUMP JUMPDEST PUSH1 0x60 PUSH1 0x40 MLOAD DUP1 PUSH1 0x40 ADD PUSH1 0x40 MSTORE DUP1 PUSH1 0x3 DUP2 MSTORE PUSH1 0x20 ADD PUSH32 0x322E300000000000000000000000000000000000000000000000000000000000 DUP2 MSTORE POP SWAP1 POP SWAP1 JUMP JUMPDEST DUP1 PUSH1 0x0 DUP2 SWAP1 SSTORE POP PUSH32 0xC0DD44D3F117C96295A84B2EB7B3F6ABE929928D111B030BFB3568F5EFA0FF1F DUP2 PUSH1 0x40 MLOAD PUSH2 0x143 SWAP2 SWAP1 PUSH2 0x252 JUMP JUMPDEST PUSH1 0x40 MLOAD DUP1 SWAP2 SUB SWAP1 LOG1 POP JUMP JUMPDEST PUSH1 0x0 PUSH1 0x1 PUSH1 0x0 SLOAD PUSH2 0x15F SWAP2 SWAP1 PUSH2 0x289 JUMP JUMPDEST PUSH1 0x0 DUP2 SWAP1 SSTORE POP PUSH32 0xC0DD44D3F117C96295A84B2EB7B3F6ABE929928D111B030BFB3568F5EFA0FF1F PUSH1 0x0 SLOAD PUSH1 0x40 MLOAD PUSH2 0x196 SWAP2 SWAP1 PUSH2 0x252 JUMP JUMPDEST PUSH1 0x40 MLOAD DUP1 SWAP2 SUB SWAP1 LOG1 PUSH1 0x0 SLOAD SWAP1 POP SWAP1 JUMP JUMPDEST PUSH1 0x0 DUP2 CALLDATALOAD SWAP1 POP PUSH2 0x1B5 DUP2 PUSH2 0x361 JUMP JUMPDEST SWAP3 SWAP2 POP POP JUMP JUMPDEST PUSH1 0x0 PUSH1 0x20 DUP3 DUP5 SUB SLT ISZERO PUSH2 0x1D1 JUMPI PUSH2 0x1D0 PUSH2 0x34B JUMP JUMPDEST JUMPDEST PUSH1 0x0 PUSH2 0x1DF DUP5 DUP3 DUP6 ADD PUSH2 0x1A6 JUMP JUMPDEST SWAP2 POP POP SWAP3 SWAP2 POP POP JUMP JUMPDEST PUSH1 0x0 PUSH2 0x1F3 DUP3 PUSH2 0x26D JUMP JUMPDEST PUSH2 0x1FD DUP2 DUP6 PUSH2 0x278 JUMP JUMPDEST SWAP4 POP PUSH2 0x20D DUP2 DUP6 PUSH1 0x20 DUP7 ADD PUSH2 0x2E9 JUMP JUMPDEST PUSH2 0x216 DUP2 PUSH2 0x350 JUMP JUMPDEST DUP5 ADD SWAP2 POP POP SWAP3 SWAP2 POP POP JUMP JUMPDEST PUSH2 0x22A DUP2 PUSH2 0x2DF JUMP JUMPDEST DUP3 MSTORE POP POP JUMP JUMPDEST PUSH1 0x0 PUSH1 0x20 DUP3 ADD SWAP1 POP DUP2 DUP2 SUB PUSH1 0x0 DUP4 ADD MSTORE PUSH2 0x24A DUP2 DUP5 PUSH2 0x1E8 JUMP JUMPDEST SWAP1 POP SWAP3 SWAP2 POP POP JUMP JUMPDEST PUSH1 0x0 PUSH1 0x20 DUP3 ADD SWAP1 POP PUSH2 0x267 PUSH1 0x0 DUP4 ADD DUP5 PUSH2 0x221 JUMP JUMPDEST SWAP3 SWAP2 POP POP JUMP JUMPDEST PUSH1 0x0 DUP2 MLOAD SWAP1 POP SWAP2 SWAP1 POP JUMP JUMPDEST PUSH1 0x0 DUP3 DUP3 MSTORE PUSH1 0x20 DUP3 ADD SWAP1 POP SWAP3 SWAP2 POP POP JUMP JUMPDEST PUSH1 0x0 PUSH2 0x294 DUP3 PUSH2 0x2DF JUMP JUMPDEST SWAP2 POP PUSH2 0x29F DUP4 PUSH2 0x2DF JUMP JUMPDEST SWAP3 POP DUP3 PUSH32 0xFFFFFFFFFFFFFFFFFFFFFFFFFFFFFFFFFFFFFFFFFFFFFFFFFFFFFFFFFFFFFFFF SUB DUP3 GT ISZERO PUSH2 0x2D4 JUMPI PUSH2 0x2D3 PUSH2 0x31C JUMP JUMPDEST JUMPDEST DUP3 DUP3 ADD SWAP1 POP SWAP3 SWAP2 POP POP JUMP JUMPDEST PUSH1 0x0 DUP2 SWAP1 POP SWAP2 SWAP1 POP JUMP JUMPDEST PUSH1 0x0 JUMPDEST DUP4 DUP2 LT ISZERO PUSH2 0x307 JUMPI DUP1 DUP3 ADD MLOAD DUP2 DUP5 ADD MSTORE PUSH1 0x20 DUP2 ADD SWAP1 POP PUSH2 0x2EC JUMP JUMPDEST DUP4 DUP2 GT ISZERO PUSH2 0x316 JUMPI PUSH1 0x0 DUP5 DUP5 ADD MSTORE JUMPDEST POP POP POP POP JUMP JUMPDEST PUSH32 0x4E487B7100000000000000000000000000000000000000000000000000000000 PUSH1 0x0 MSTORE PUSH1 0x11 PUSH1 0x4 MSTORE PUSH1 0x24 PUSH1 0x0 REVERT JUMPDEST PUSH1 0x0 DUP1 REVERT JUMPDEST PUSH1 0x0 PUSH1 0x1F NOT PUSH1 0x1F DUP4 ADD AND SWAP1 POP SWAP2 SWAP1 POP JUMP JUMPDEST PUSH2 0x36A DUP2 PUSH2 0x2DF JUMP JUMPDEST DUP2 EQ PUSH2 0x375 JUMPI PUSH1 0x0 DUP1 REVERT JUMPDEST POP JUMP INVALID LOG2 PUSH5 0x6970667358 0x22 SLT KECCAK256 MOD 0xCB PUSH4 0xFB33267F 0xCF 0xBC 0xCD SHR BASEFEE 0xAF 0xBA CREATE2 PUSH23 0x1E3B6398457FB496DD98C93912BE022A64736F6C634300 ADDMOD SMOD STOP CALLER "},"gasEstimates":{"creation":{"codeDepositCost":"188400","executionCost":"232","totalCost":"188632"},"external":{"increment()":"infinite","retrieve()":"2415","store(uint256)":"infinite","version()":"infinite"}},"methodIdentifiers":{"increment()":"d09de08a","retrieve()":"2e64cec1","store(uint256)":"6057361d","version()":"54fd4d50"}},"storageLayout":{"storage":[{"astId":3,"contract":"contracts/BoxV2.sol:BoxV2","label":"value","offset":0,"slot":"0","type":"t_uint256"}],"types":{"t_uint256":{"encoding":"inplace","label":"uint256","numberOfBytes":"32"}}},"userdoc":{"kind":"user","methods":{},"version":1}}}}