{
  "_format": "hh-sol-artifact-1",
  "contractName": "Box",
  "sourceName": "contracts/Box.sol",
  "abi": [
    {
      "anonymous": false,
      "inputs": [
        {
          "indexed": false,
          "internalType": "uint256",
          "name": "newVale",
          "type": "uint256"
        }
      ],
      "name": "valueChanged",
      "type": "event"
    },
    {
      "inputs": [],
      "name": "retrieve",
      "outputs": [
        {
          "internalType": "uint256",
          "name": "",
          "type": "uint256"
        }
      ],
      "stateMutability": "view",
      "type": "function"
    },
    {
      "inputs": [
        {
          "internalType": "uint256",
          "name": "newValue",
          "type": "uint256"
        }
      ],
      "name": "store",
      "outputs": [],
      "stateMutability": "nonpayable",
      "type": "function"
    },
    {
      "inputs": [],
      "name": "version",
      "outputs": [
        {
          "internalType": "string",
          "name": "",
          "type": "string"
        }
      ],
      "stateMutability": "pure",
      "type": "function"
    }
  ],
  "bytecode": "0x608060405234801561001057600080fd5b506102a8806100206000396000f3fe608060405234801561001057600080fd5b50600436106100415760003560e01c80632e64cec11461004657806354fd4d50146100645780636057361d14610082575b600080fd5b61004e61009e565b60405161005b91906101d1565b60405180910390f35b61006c6100a7565b60405161007991906101af565b60405180910390f35b61009c6004803603810190610097919061013a565b6100e4565b005b60008054905090565b60606040518060400160405280600381526020017f312e300000000000000000000000000000000000000000000000000000000000815250905090565b806000819055507fc0dd44d3f117c96295a84b2eb7b3f6abe929928d111b030bfb3568f5efa0ff1f8160405161011a91906101d1565b60405180910390a150565b6000813590506101348161025b565b92915050565b6000602082840312156101505761014f610245565b5b600061015e84828501610125565b91505092915050565b6000610172826101ec565b61017c81856101f7565b935061018c818560208601610212565b6101958161024a565b840191505092915050565b6101a981610208565b82525050565b600060208201905081810360008301526101c98184610167565b905092915050565b60006020820190506101e660008301846101a0565b92915050565b600081519050919050565b600082825260208201905092915050565b6000819050919050565b60005b83811015610230578082015181840152602081019050610215565b8381111561023f576000848401525b50505050565b600080fd5b6000601f19601f8301169050919050565b61026481610208565b811461026f57600080fd5b5056fea26469706673582212202fb9e1375a2b41b78def1c816a061e15b20952f832932e69c93957126c27ad3764736f6c63430008070033",
  "linkReferences": {},
  "deployedLinkReferences": {}
}