{
  "_format": "hh-sol-artifact-1",
  "contractName": "BoxV2",
  "sourceName": "contracts/BoxV2.sol",
  "abi": [
    {
      "anonymous": false,
      "inputs": [
        {
          "indexed": false,
          "internalType": "uint256",
          "name": "newVale",
          "type": "uint256"
        }
      ],
      "name": "valueChanged",
      "type": "event"
    },
    {
      "inputs": [],
      "name": "increment",
      "outputs": [
        {
          "internalType": "uint256",
          "name": "",
          "type": "uint256"
        }
      ],
      "stateMutability": "nonpayable",
      "type": "function"
    },
    {
      "inputs": [],
      "name": "retrieve",
      "outputs": [
        {
          "internalType": "uint256",
          "name": "",
          "type": "uint256"
        }
      ],
      "stateMutability": "view",
      "type": "function"
    },
    {
      "inputs": [
        {
          "internalType": "uint256",
          "name": "newValue",
          "type": "uint256"
        }
      ],
      "name": "store",
      "outputs": [],
      "stateMutability": "nonpayable",
      "type": "function"
    },
    {
      "inputs": [],
      "name": "version",
      "outputs": [
        {
          "internalType": "string",
          "name": "",
          "type": "string"
        }
      ],
      "stateMutability": "pure",
      "type": "function"
    }
  ],
  "bytecode": "0x608060405234801561001057600080fd5b506103ae806100206000396000f3fe608060405234801561001057600080fd5b506004361061004c5760003560e01c80632e64cec11461005157806354fd4d501461006f5780636057361d1461008d578063d09de08a146100a9575b600080fd5b6100596100c7565b6040516100669190610252565b60405180910390f35b6100776100d0565b6040516100849190610230565b60405180910390f35b6100a760048036038101906100a291906101bb565b61010d565b005b6100b161014e565b6040516100be9190610252565b60405180910390f35b60008054905090565b60606040518060400160405280600381526020017f322e300000000000000000000000000000000000000000000000000000000000815250905090565b806000819055507fc0dd44d3f117c96295a84b2eb7b3f6abe929928d111b030bfb3568f5efa0ff1f816040516101439190610252565b60405180910390a150565b6000600160005461015f9190610289565b6000819055507fc0dd44d3f117c96295a84b2eb7b3f6abe929928d111b030bfb3568f5efa0ff1f6000546040516101969190610252565b60405180910390a1600054905090565b6000813590506101b581610361565b92915050565b6000602082840312156101d1576101d061034b565b5b60006101df848285016101a6565b91505092915050565b60006101f38261026d565b6101fd8185610278565b935061020d8185602086016102e9565b61021681610350565b840191505092915050565b61022a816102df565b82525050565b6000602082019050818103600083015261024a81846101e8565b905092915050565b60006020820190506102676000830184610221565b92915050565b600081519050919050565b600082825260208201905092915050565b6000610294826102df565b915061029f836102df565b9250827fffffffffffffffffffffffffffffffffffffffffffffffffffffffffffffffff038211156102d4576102d361031c565b5b828201905092915050565b6000819050919050565b60005b838110156103075780820151818401526020810190506102ec565b83811115610316576000848401525b50505050565b7f4e487b7100000000000000000000000000000000000000000000000000000000600052601160045260246000fd5b600080fd5b6000601f19601f8301169050919050565b61036a816102df565b811461037557600080fd5b5056fea264697066735822122006cb63fb33267fcfbccd1c48afbaf5761e3b6398457fb496dd98c93912be022a64736f6c63430008070033",
  "linkReferences": {},
  "deployedLinkReferences": {}
}